:100000000C9472000C9453010C9486000C9486009E
:100010000C9486000C9486000C9486000C94860048
:100020000C9486000C9486000C9486000C94860038
:100030000C9486000C9486000C9486000C94860028
:100040000C9486000C9486000C9486000C94860018
:100050000C9486000C94D9010C9486000C94A40195
:100060000C9486000C9486000C9486000C948600F8
:100070000C9486000C9486000C9486000C948600E8
:100080000C9486000C9486000C9486000C948600D8
:100090000C9486000C9486000C9486000C948600C8
:1000A0000C9486000C9486000C9486000C948600B8
:1000B0000C9486000C9486000C9486000C948600A8
:1000C0000C9486000C9486000C9486000C94860098
:1000D0000C9486000C9486000C9486000C94860088
:1000E0000C94860011241FBECFEFD1E2DEBFCDBF3E
:1000F00000E00CBF22E0A0E0B2E001C01D92A830F9
:10010000B207E1F70E940A020C9464060C94000006
:10011000CF93DF93CDB7DEB787E290E0FC0120817B
:1001200087E290E02068FC01208387E290E0FC01F8
:10013000208187E290E02064FC01208387E290E048
:10014000FC01208187E290E02062FC01208387E2AD
:1001500090E0FC01208187E290E02061FC01208397
:1001600087E290E0FC01208187E290E02860FC01BA
:10017000208387E290E0FC01208187E290E0246008
:10018000FC01208388E290E0FC01208188E290E07D
:100190002F77FC01208388E290E0FC01208188E237
:1001A00090E02F7BFC01208388E290E0FC0120811D
:1001B00088E290E02F7DFC01208388E290E0FC0142
:1001C000208188E290E02F7EFC01208388E290E08D
:1001D000FC01208188E290E0277FFC01208388E2F7
:1001E00090E0FC01208188E290E02B7FFC012083DD
:1001F00085E490E021E0FC0120838EE690E023E09E
:10020000FC01208387E490E0FC011082789481E86F
:1002100090E0FC01208181E890E02160FC012083D6
:100220008AE290E0FC0120818AE290E02260FC01F9
:1002300020838DE390E0FC0120818DE390E021603C
:10024000FC01208389E690E0FC01208189E690E0B2
:100250002160FC01208381E990E0FC01208181E99B
:1002600090E02160FC0120838AE290E0FC01208183
:100270008AE290E02860FC0120838DE390E0FC019D
:1002800020818DE390E02460FC01208389E690E0EA
:10029000FC01208189E690E02061FC0120830000C0
:1002A000DF91CF9108951F920F920FB60F921124F4
:1002B0000BB60F922F938F939F93EF93FF93CF9350
:1002C000DF93CDB7DEB780910202909103028130B7
:1002D0009105B1F481E890E0FC01108284E890E09F
:1002E000FC0180819181909305028093040284E84F
:1002F00090E0FC011182108210920302109202021F
:100300008091020290910302009779F481E890E0D5
:10031000FC01208181E890E02160FC01208381E0E4
:1003200090E090930302809302020000DF91CF914E
:10033000FF91EF919F918F912F910F900BBE0F9096
:100340000FBE0F901F9018951F920F920FB60F922D
:1003500011240BB60F922F933F938F939F93EF939C
:10036000FF93CF93DF93CDB7DEB788E290E0FC0137
:10037000308188E290E020E82327FC01208388E296
:1003800090E0FC01308188E290E024E02327FC012A
:1003900020830000DF91CF91FF91EF919F918F918A
:1003A0003F912F910F900BBE0F900FBE0F901F909B
:1003B00018951F920F920FB60F9211240BB60F9241
:1003C0002F938F939F93EF93FF93CF93DF93CDB7AB
:1003D000DEB788E290E0FC01208188E290E02068AE
:1003E000FC01208388E290E0FC01208188E290E01B
:1003F0002460FC0120830000DF91CF91FF91EF91F9
:100400009F918F912F910F900BBE0F900FBE0F9069
:100410001F901895CF93DF93CDB7DEB7C457D1099E
:100420000FB6F894DEBF0FBECDBF0E94880084E1F6
:100430000E9443041A8219821C821B828BE290E084
:10044000DC012C918BE290E02260FC0120838BE2A6
:1004500090E0DC012C918BE290E02860FC0120838D
:1004600080E090E0A0E7B1E48D839E83AF83B887FE
:100470002BEA3AEA4AEA50E46D817E818F819885C1
:100480000E94F70569AF7AAF8BAF9CAF29AD3AAD4B
:100490004BAD5CAD29873A874B875C8720E030E025
:1004A00040E850E46D817E818F8198850E94F70538
:1004B00021966CAF7DAF8EAF9FAF219721968CAD0B
:1004C0009DADAEADBFAD21978D879E87AF87B88BB1
:1004D00020E030E040E85FE369857A858B859C8584
:1004E0000E94930488231CF481E0898BFBC020E0E8
:1004F0003FEF4FE757E46D857E858F8598890E9491
:10050000F205882309F00CF4B2C020E030E04AE79D
:1005100054E46D817E818F8198850E949804259690
:100520006CAF7DAF8EAF9FAF259725968CAD9DADFF
:10053000AEADBFAD25978A8B9B8BAC8BBD8B20E07E
:1005400030E04AE755E46A897B898C899D890E945D
:10055000F70529966CAF7DAF8EAF9FAF299729968F
:100560002CAD3DAD4EAD5FAD29972E8B3F8B488FA7
:10057000598F20E030E040E85FE36E897F89888D05
:10058000998D0E94930488232CF481E090E09B8F46
:100590008A8F62C020E03FEF4FE757E46E897F8982
:1005A000888D998D0E94F205882309F00CF442C0D1
:1005B00020E030E040E251E46A897B898C899D89A2
:1005C0000E94F7052D966CAF7DAF8EAF9FAF2D9734
:1005D0002D968CAD9DADAEADBFAD2D978DAB9EABC9
:1005E000AFABB8AF6DA97EA98FA998AD0E941105D8
:1005F00061966CAF7DAF8EAF9FAF61972F96AEAD1A
:10060000BFAD2F97BB8FAA8F10C080E991E09D8F5F
:100610008C8F8C8D9D8D0197F1F79D8F8C8F0000B5
:100620008A8D9B8D01979B8F8A8F8A8D9B8D0097DA
:1006300061F758C06E897F89888D998D0E94110558
:1006400065966CAF7DAF8EAF9FAF65976396EEAD4D
:10065000FFAD6397FB8FEA8F8A8D9B8D9F8F8E8F67
:100660008E8D9F8D0197F1F79F8F8E8F3BC020E07D
:1006700030E04FE753E469857A858B859C850E943D
:10068000F2058823F9F0F4F06D857E858F859889D1
:100690000E94110569966CAF7DAF8EAF9FAF6997D1
:1006A00067962EAD3FAD679739A328A388A199A17E
:1006B0009BA38AA38AA19BA10197F1F79BA38AA37D
:1006C000000017C069857A858B859C850E9411057D
:1006D0006D966CAF7DAF8EAF9FAF6D976A963FAD55
:1006E0006A97398B89898CA38CA18A95F1F78CA3A1
:1006F00000008BE290E0DC012C918BE290E02D7FFA
:10070000FC0120838BE290E0DC012C918BE290E0F5
:10071000277FFC01208380910002909101029C01BF
:10072000990F440B550BA1962CAF3DAF4EAF5FAF69
:10073000A197A1966CAD7DAD8EAD9FADA1970E94A6
:1007400042056DA37EA38FA398A722EB3DE94FE25C
:100750005CE36DA17EA18FA198A50E94F705A596E7
:100760006CAF7DAF8EAF9FAFA597A5968CAD9DADBD
:10077000AEADBFADA59789A79AA7ABA7BCA769A542
:100780007AA58BA59CA50E940A05A9966CAF7DAFA2
:100790008EAF9FAFA997A796AEADBFADA797BA830F
:1007A000A98380910402909105029C01990F440B4A
:1007B000550BAD962CAF3DAF4EAF5FAFAD97AD963D
:1007C0006CAD7DAD8EAD9FADAD970E9442056DA71E
:1007D0007EA78FA798AB22EB3DE94FE25CE36DA5C6
:1007E0007EA58FA598A90E94F705E1966CAF7DAF15
:1007F0008EAF9FAFE197E1968CAD9DADAEADBFAD35
:10080000E19789AB9AABABABBCAB69A97AA98BA9D1
:100810009CA90E940A05E5966CAF7DAF8EAF9FAF95
:10082000E597E396AEADBFADE397BC83AB838B8119
:100830009C818E31910511F00CF000CE88E290E0A1
:10084000FC01208188E290E02F7BDC012C9388E280
:1008500090E0FC01208188E290E02062DC012C9392
:1008600088E290E0FC01208188E290E02F7EDC01AC
:100870002C9388E290E0FC01208188E290E02860DF
:10088000DC012C93DBCDCF93DF930F92CDB7DEB796
:10089000898389818823D4F08981843609F0B4F46E
:1008A0008981082E000C990B2FEF289FA001299F0A
:1008B000500D112424E630E0CA01B9010E946B04F6
:1008C000CB019C0187E490E0FC01208300000F90A5
:1008D000DF91CF91089597FB072E16F4009407D06F
:1008E00077FD09D00E947F0407FC05D03EF4909567
:1008F00081959F4F0895709561957F4F0895AA1B2C
:10090000BB1B51E107C0AA1FBB1FA617B70710F0FA
:10091000A61BB70B881F991F5A95A9F7809590952C
:10092000BC01CD0108950E947D0508F481E0089581
:100930000E94AC040C94B8050E94B10558F00E94C6
:10094000AA0540F029F45F3F29F00C94A10551114C
:100950000C94EC050C94A7050E94C90568F3992333
:10096000B1F3552391F3951B550BBB27AA276217AB
:100970007307840738F09F5F5F4F220F331F441FB8
:10098000AA1FA9F335D00E2E3AF0E0E832D09150EC
:100990005040E695001CCAF72BD0FE2F29D0660FD9
:1009A000771F881FBB1F261737074807AB07B0E81C
:1009B00009F0BB0B802DBF01FF2793585F4F3AF022
:1009C0009E3F510578F00C94A1050C94EC055F3F17
:1009D000E4F3983ED4F3869577956795B795F795A8
:1009E0009F5FC9F7880F911D9695879597F9089590
:1009F000E1E0660F771F881FBB1F6217730784072C
:100A0000BA0720F0621B730B840BBA0BEE1F88F73A
:100A1000E09508950E9411056894B1110C94EC05BD
:100A200008950E94D10588F09F5798F0B92F992713
:100A3000B751B0F0E1F0660F771F881F991F1AF0C9
:100A4000BA95C9F714C0B13091F00E94EB05B1E03E
:100A500008950C94EB05672F782F8827B85F39F03D
:100A6000B93FCCF3869577956795B395D9F73EF462
:100A700090958095709561957F4F8F4F9F4F08950A
:100A8000E89409C097FB3EF4909580957095619528
:100A90007F4F8F4F9F4F9923A9F0F92F96E9BB27DE
:100AA0009395F695879577956795B795F111F8CF5A
:100AB000FAF4BB0F11F460FF1BC06F5F7F4F8F4FC5
:100AC0009F4F16C0882311F096E911C0772321F0BB
:100AD0009EE8872F762F05C0662371F096E8862F53
:100AE00070E060E02AF09A95660F771F881FDAF7AA
:100AF000880F9695879597F90895990F0008550FD7
:100B0000AA0BE0E8FEEF16161706E807F907C0F093
:100B100012161306E407F50798F0621B730B840B9B
:100B2000950B39F40A2661F0232B242B252B21F475
:100B300008950A2609F4A140A6958FEF811D811D15
:100B4000089597F99F6780E870E060E008959FEF4F
:100B500080EC089500240A94161617061806090654
:100B6000089500240A941216130614060506089523
:100B7000092E0394000C11F4882352F0BB0F40F4AB
:100B8000BF2B11F460FF04C06F5F7F4F8F4F9F4FEB
:100B9000089557FD9058440F551F59F05F3F71F06D
:100BA0004795880F97FB991F61F09F3F79F08795D4
:100BB0000895121613061406551FF2CF4695F1DF5D
:100BC00008C0161617061806991FF1CF86957105ED
:100BD000610508940895E894BB2766277727CB0121
:100BE00097F908950E947D0508F48FEF08950E94FB
:100BF0000A060C94B8050E94AA0538F00E94B105B7
:100C000020F0952311F00C94A1050C94A705112454
:100C10000C94EC050E94C90570F3959FC1F3950FE4
:100C200050E0551F629FF001729FBB27F00DB11D70
:100C3000639FAA27F00DB11DAA1F649F6627B00D00
:100C4000A11D661F829F2227B00DA11D621F739FE9
:100C5000B00DA11D621F839FA00D611D221F749FF7
:100C60003327A00D611D231F849F600D211D822F3E
:100C7000762F6A2F11249F5750409AF0F1F0882365
:100C80004AF0EE0FFF1FBB1F661F771F881F915092
:100C90005040A9F79E3F510580F00C94A1050C949B
:100CA000EC055F3FE4F3983ED4F38695779567951E
:100CB000B795F795E7959F5FC1F7FE2B880F911DBC
:0C0CC0009695879597F90895F894FFCF5A
:00000001FF
